:100000000C942A000C943F000C943F000C943F0089
:100010000C943F000C943F000C943F000C943F0064
:100020000C943F000C943F000C943F000C943F0054
:100030000C943F000C943F000C943F000C943F0044
:100040000C943F000C943F000C943F000C943F0034
:100050000C943F0011241FBECFE5D8E0DEBFCDBF1A
:1000600010E0A0E6B0E0E2E5F9E002C005900D92F4
:10007000A039B107D9F70E940D020C94A7040C9483
:100080000000CF93CCE061E08C2F0E94A003CF5FF3
:10009000C031C9F7CF910895DF92EF92FF920F938D
:1000A0001F93CF93DF9390E8E92E90E0F92ECCE0F8
:1000B000D4E560E08C2F0E94A00300E010E088E10E
:1000C000D82ED00E8D2D0E941F04811115C0F7016E
:1000D000E00FF11FD0818FE19EE40197F1F700C09E
:1000E00000008D2D0E941F048823D9F38FE19EE428
:1000F0000197F1F700C000000F5F1F4F043011059A
:10010000F1F661E08C2F0E94A003CF5F94E0E90E2E
:10011000F11CC03171F68D2FDF91CF911F910F919E
:10012000FF90EF90DF900895CF93C82F61E085E0B6
:100130000E94A0036C2F661F6627661F80E00E9446
:10014000A003C6FB662760F981E00E94A003C5FBFF
:10015000662760F982E00E94A003C4FB662760F96D
:1001600083E00E94A00361E084E00E94A0038FEC82
:1001700097E00197F1F700C0000060E084E00E9482
:10018000A0038FEC97E00197F1F700C00000C3FBDC
:10019000662760F980E00E94A003C2FB662760F931
:1001A00081E00E94A003C1FB662760F982E00E9403
:1001B000A0036C2F617083E00E94A00361E084E0E3
:1001C0000E94A0038FEC97E00197F1F700C00000B8
:1001D00060E084E00E94A0038FEC97E00197F1F7C4
:1001E00000C00000CF910895CF93C82F60E085E054
:1001F0000E94A0036C2F661F6627661F80E00E9486
:10020000A003C6FB662760F981E00E94A003C5FB3E
:10021000662760F982E00E94A003C4FB662760F9AC
:1002200083E00E94A00361E084E00E94A0038FECC1
:1002300097E00197F1F700C0000060E084E00E94C1
:10024000A0038FEC97E00197F1F700C00000C3FB1B
:10025000662760F980E00E94A003C2FB662760F970
:1002600081E00E94A003C1FB662760F982E00E9442
:10027000A0036C2F617083E00E94A00361E084E022
:100280000E94A0038FEC97E00197F1F700C00000F7
:1002900060E084E00E94A0038FEC97E00197F1F703
:1002A00000C00000CF9108952FE788E391E021502E
:1002B00080409040E1F700C0000082E00E94F4001E
:1002C00088E20E94F4008CE00E94F40081E00E9429
:1002D000F4008FEC97E00197F1F700C0000086E092
:1002E0000C94F400811102C080E803C0813021F435
:1002F00080EC860F0C94F400089581E00E94F400D5
:100300008FEC97E00197F1F700C0000008950C947E
:1003100094004F925F926F927F92AF92BF92CF9272
:10032000DF92EF92FF921F93CF93DF93CDB7DEB7AB
:1003300064970FB6F894DEBF0FBECDBF6B017C0192
:100340006115710581059105B1F480E364960FB6DE
:10035000F894DEBF0FBECDBFDF91CF911F91FF900C
:10036000EF90DF90CF90BF90AF907F906F905F90B5
:100370004F900C94940097FF0BC08DE20E94940064
:10038000F094E094D094C094C11CD11CE11CF11CE9
:1003900010E09AE0492E512C612C712CAA24A394D0
:1003A000B12CAC0EBD1EA10EB11CC701B601A3013C
:1003B00092010E946E04605DF501608381E0810F0F
:1003C00069017A01C114D104E104F10411F0182F7C
:1003D000E5CFF12EF7FC0DC0E1E0F0E0EC0FFD1FE2
:1003E000EF0DF11DF7FCFA9580810E949400FA94BC
:1003F000F1CF64960FB6F894DEBF0FBECDBFDF918C
:10040000CF911F91FF90EF90DF90CF90BF90AF9072
:100410007F906F905F904F9008950E94C2020E945B
:1004200054010E944100812C912C5401412C512CEB
:100430003201C12CD12C7601C0E0D0E00E944C00EA
:10044000182F8435D9F380ED810F8A3028F5D1112A
:100450000BC00E947D01812C912C5401412C512C08
:100460003201C12CD12C7601AAE0B0E0A70196019F
:100470000E948D04212F30E0690140E3C41AD108A5
:100480000D2C000CEE08FF08C60ED71EE81EF91E44
:10049000812F0E94870174C0133419F40E947D01DA
:1004A000C5CF1D3399F58DE30E948701C13039F422
:1004B00046015701840C951CA61CB71C1EC0C230F7
:1004C00039F4530142018C189D08AE08BF0815C0CD
:1004D000C33049F4A7019601C301B2010E943C0454
:1004E0004B015C010AC0C43041F4C301B201A70151
:1004F00096010E944C0449015A0160E081E00E948B
:100500007201C501B4010E94890196CFC11196CF35
:10051000D13049F00E947D01C501B4010E948901DA
:100520002401350102C0260137011B3241F48BE260
:100530000E948701C12CD12C7601C1E021C01D325F
:1005400041F48DE20E948701C12CD12C7601C2E0DA
:1005500017C01A3241F48AE20E948701C12CD12CC3
:100560007601C3E00DC01F3241F48FE20E94870183
:10057000C12CD12C7601C4E003C0C12CD12C760152
:10058000D1E05CCFE0E6F0E040E081E090E0519126
:10059000242F2770342F369536953695513009F42F
:1005A00043C020F0523009F482C0C5C0323001F19E
:1005B000333061F1313071F05AB3BC0102C0660FC3
:1005C000771F2A95E2F79B01352F322B3ABB3BB3BD
:1005D00020953DC057B3BC0102C0660F771F2A9516
:1005E000E2F79B01352F322B37BB38B320953EC045
:1005F00054B3BC0102C0660F771F2A95E2F79B0136
:10060000352F322B34BB35B320953FC051B3BC01DD
:1006100002C0660F771F2A95E2F79B01352F322B18
:1006200031BB32B3209541C0323011F1333081F10A
:10063000313079F05AB3BC0102C0660F771F2A959A
:10064000E2F79B012095352F32233ABB3BB323239E
:1006500042C057B3BC0102C0660F771F2A95E2F76C
:100660009B012095352F322337BB38B3232343C05A
:1006700054B3BC0102C0660F771F2A95E2F79B01B5
:100680002095352F322334BB35B3232325BB53C0EC
:1006900051B3BC0102C0660F771F2A95E2F79B0198
:1006A0002095352F322331BB32B3232343C0323060
:1006B00021F1333089F1313081F05AB3BC0102C0ED
:1006C000660F771F2A95E2F79B01362F3095352369
:1006D0003ABB3BB3232B2BBB2EC057B3BC0102C08C
:1006E000660F771F2A95E2F79B01362F3095352349
:1006F00037BB38B3232B28BB1EC054B3BC0102C088
:10070000660F771F2A95E2F79B01362F3095352328
:1007100034BB35B3232BBACF51B3BC0102C0660F33
:10072000771F2A95E2F79B01362F3095352331BB91
:1007300032B3232B22BB4F5F403209F028CF0895FC
:10074000982F97708695869586956130C1F5813092
:1007500091F028F08230D9F0833029F108954BB31D
:1007600021E030E0B90102C0660F771F9A95E2F7E9
:10077000CB01842B38C048B321E030E0B90102C07E
:10078000660F771F9A95E2F7CB01842B3AC045B3E9
:1007900021E030E0B90102C0660F771F9A95E2F7B9
:1007A000CB01842B3CC042B321E030E0B90102C050
:1007B000660F771F9A95E2F7CB01842B3EC08130FC
:1007C000A1F028F08230F9F0833059F108954BB34D
:1007D00021E030E0B90102C0660F771F9A95E2F779
:1007E000CB01809584238BBB089548B321E030E092
:1007F000B90102C0660F771F9A95E2F7CB01809589
:10080000842388BB089545B321E030E0B90102C0DC
:10081000660F771F9A95E2F7CB018095842385BBFD
:10082000089542B321E030E0B90102C0660F771F9E
:100830009A95E2F7CB018095842382BB0895282FF7
:100840002770869586958695813049F030F0823004
:1008500041F0833079F480B305C089B303C086B317
:1008600001C083B390E002C0959587952A95E2F781
:100870008170089580E00895DB018F939F930E941B
:100880008D04BF91AF91A29F800D911DA39F900DEC
:10089000B29F900D11240895A1E21A2EAA1BBB1B32
:1008A000FD010DC0AA1FBB1FEE1FFF1FA217B3073C
:1008B000E407F50720F0A21BB30BE40BF50B661F52
:1008C000771F881F991F1A9469F760957095809516
:1008D00090959B01AC01BD01CF010895052E97FBBA
:1008E0001EF400940E94850457FD07D00E944C041A
:1008F00007FC03D04EF40C94850450954095309538
:1009000021953F4F4F4F5F4F08959095809570957B
:1009100061957F4F8F4F9F4F08950E949804A59F28
:10092000900DB49F900DA49F800D911D11240895EA
:10093000A29FB001B39FC001A39F700D811D112420
:10094000911DB29F700D811D1124911D0895F89481
:02095000FFCFD7
:100952000000000000000000000000000000000095
:10096200000000000000000002020202000000007D
:100972003738392F3435362A3132332D43303D2B37
:00000001FF
